:020000040000FA
:060000009BEF18F0120056
:020006001200E6
:0600080022EF16F01200C9
:02000E000000F0
:020010000000EE
:06001800ADEF15F012002F
:02001E000600DA
:100020002D3200004C0F0000280000000E000000E0
:100030002801000004000000CC3100008000000016
:100040006100000080310000000F00004C00000043
:10005000603100000001000020000000523100006B
:08006000F20000000E00000098
:08006800D9CFE6FFE1CFD9FF7B
:10007000020EE126DE6ADD6A4ED801010B51FDE079
:100080000B6B1FEC14F06BD9F7EC0BF0F6D7D9CF54
:10009000E6FFE1CFD9FF040EE126DE6ADD6ADECF9E
:1000A00010F0DDCF11F0FD0EDBCF12F0FE0EDBCF36
:1000B00013F011501318E8AE02D0133404D01250CC
:1000C000105C135011581DE2020EDB6A030EDB6A4E
:1000D000020EDBCF10F0030EDBCF11F0D8901150E1
:1000E00004E6EE0E105C000E115806E2020EDB2A4A
:1000F000030EEEE3DB2AECD7DF2A010ED0E3DB2A86
:10010000CED7040EE15C02E2E16AE552E16EE5520F
:10011000E7CFD9FF1200936A956A28EC08F0C8EC83
:100120000BF0836AA5EC15F0E80EE66E030EE66EA2
:10013000AEDFE552E552570EE66E120EE66E68EC43
:100140000EF0E552E552AE0EE66E240EE66E0AECB7
:100150000FF0E552E552660EE66EB70EE66ECBEC9A
:100160000FF0E552E552020EE66EE66AA6EC10F0DC
:10017000E552E5520A0EE66EE66AB8EC10F0E5527A
:10018000E552320EE66EE66AD7EC10F0E552E55223
:1001900068EC13F0F6EC10F0010EE66EE66A2BD870
:1001A000E552E5521200D9CFE6FFE1CFD9FFFE0EAE
:1001B000DBCF11F0800E11141AE1FD0EDBCF12F02F
:1001C000FE0EDBCF13F0133404E212500708000ECA
:1001D00013540DE3FD0EDBCFE9FFFE0EDBCFEAFF8C
:1001E000000EE9260F0EEA22EF508310836EE552CF
:1001F000E7CFD9FF1200D9CFE6FFE1CFD9FFFE0E3E
:10020000DBCF11F0800E11141AE1FD0EDBCF12F0DE
:10021000FE0EDBCF13F0133404E212500708000E79
:1002200013540DE3FD0EDBCFE9FFFE0EDBCFEAFF3B
:10023000000EE9260F0EEA22EF1C8314836EE552AE
:10024000E7CFD9FF1200D9CFE6FFE1CFD9FFFD0EEE
:10025000DBCFE9FFFE0EDBCFEAFF080EE9260F0E2B
:10026000EA22EF0415E1FD0EDBCFE6FFFE0EDBCF49
:10027000E6FFC1DFE552E552FD0EDBCFE9FFFE0EE2
:10028000DBCFEAFF080EE9260F0EEA22EF6A15D04F
:10029000FD0EDBCFE6FFFE0EDBCFE6FF84DFE5528F
:1002A000E552FD0EDBCFE9FFFE0EDBCFEAFF080EC5
:1002B000E9260F0EEA22010EEF6EE552E7CFD9FFD5
:1002C0001200D9CFE6FFE1CFD9FF020EE126DE6AA8
:1002D000DD6ADECF10F0DDCF11F0113404E21050F2
:1002E0000708000E115421E3DECFE6FFDDCFE6FF65
:1002F0005ADFE552E552F40EE66E010EE66EC7DEF9
:10030000E552E552DECFE6FFDDCFE6FF74DFE552D2
:10031000E552F40EE66E010EE66EB9DEE552E552E8
:10032000DF2A010ED6E3DB2AD4D7020EE15C02E21B
:10033000E16AE552E16EE552E7CFD9FF12000F0105
:10034000010E501903E1515101E1010C000C0F01A4
:10035000010E521903E1535101E1010C000C0F0190
:100360004851140A01E1EAD3060A01E1D4D3030A91
:1003700001E1ADD31E0A01E172D3010A01E12ED3DE
:10038000030A01E10AD3010A01E1E6D2070A01E109
:1003900099D2010A01E14AD2030A01E10DD2010A10
:1003A00001E1CCD10E0A01E159D1030A01E1BED02D
:1003B000010A01E1A4D0070A01E190D0010A01E19C
:1003C00083D0030A43E0010A01E01200A30EE66EA7
:1003D0002E0EE66EE66AE66A3DEC0EF0E552E55258
:1003E000E552E552920EE66E2E0EE66EE66A010EBC
:1003F000E66E3DEC0EF0E552E552E552E55250EC6A
:1004000007F00101210518E124EC07F0010806E1DD
:1004100048EC07F00F01050E486F0CD0810EE66E18
:100420002E0EE66EE66AE66A3DEC0EF0E552E55207
:10043000E552E5520101216BDCEC06F0000901E117
:1004400093D30F01496B4A6B010E1ED3700EE66EFB
:100450002E0EE66EE66AE66A3DEC0EF0E552E552D7
:10046000E552E5520F014A2BB3EC06F0000919E002
:100470006E0EE66E2E0EE66E49CFE6FF010EE66EBC
:100480003DEC0EF0E552E552E552E5520F014951BF
:10049000EA6AE50FE96E000EEA22F1C0EFFF492B90
:1004A0004A6B040E0F01495D02E3020E486F640EB1
:1004B0004A5D04E30101216B0F01486BDCEC06F09F
:1004C000000901E151D32DD04A6BEDDB000903E0B7
:1004D0000F01030ED9D20F01040ED6D24A6B5D0E66
:1004E000E66E2E0EE66EE66AE66A3DEC0EF0E5522A
:1004F000E552E552E55248EC07F00F01AED24A2B27
:100500004C0EE66E2E0EE66EE66AE66A3DEC0EF0E6
:10051000E552E552E552E552280E0F014A5D01E22F
:1005200023D30101216B0F01486B12004A2B465166
:10053000471105E100013B0EE16F2E0E1DD0010EAB
:10054000461907E1475105E100012A0EE16F2E0E21
:1005500013D0020E461907E1475105E10001190EBB
:10056000E16F2E0E09D0030E461907E1475105E150
:100570000001080EE16F2E0EE26FE1C0E6FFE2C05F
:10058000E6FFE66AE66A3DEC0EF0E552E552E5521A
:10059000E552F70EE66E2D0EE66EE66A010EE66E89
:1005A0003DEC0EF0E552E552E552E552E4EC06F082
:1005B00000090DE00F01030E461905E1475103E163
:1005C000466B476B03D0462B000E47234A6BDCEC8F
:1005D00006F0000932E00F014A6B020E461901E1F4
:1005E000475129E0010E461901E1475113E04651F8
:1005F00001E1475109E0030E46191FE147511DE192
:10060000486B0101216B19D00001E36BE46B0F0112
:10061000060E12D0920EE66E2E0EE66EE66A010E01
:10062000E66E3DEC0EF0E552E552E552E5520F0163
:10063000496B0E0E01D0140E486F0F014A51106E17
:10064000116AD890115004E6C80E105C000E1158C3
:1006500001E28AD2486B0101216B12004A2B040E81
:100660000001E31901E1E45123E0030EE31901E184
:10067000E4511AE0020EE31901E1E45111E0010E28
:10068000E31901E1E45108E0E35116E1E45114E11A
:10069000E60EE16F2D0E0FD0D50EE16F2D0E0BD0B3
:1006A000C40EE16F2D0E07D0B30EE16F2D0E03D0F7
:1006B000A20EE16F2D0EE26FE1C0E6FFE2C0E6FFA1
:1006C000E66AE66A3DEC0EF0E552E552E552E55287
:1006D0007BDB00090EE00001030EE31905E1E451A4
:1006E00003E1E36BE46B03D0E32B000EE4230F0183
:1006F0004A6B62DB000913E00F014A6B496B920EF3
:10070000E66E2E0EE66EE66A010EE66E3DEC0EF02B
:10071000E552E552E552E5520F01080E486F0F0110
:100720004A51106E116AD890115004E6C80E105C40
:10073000000E115801E218D24A6B8FD14A2B910E4C
:10074000E66E2D0EE66EE66AE66A3DEC0EF0E552C8
:10075000E552E552E55207DB000919E06E0EE66E40
:100760002E0EE66E49CFE6FF010EE66E3DEC0EF072
:10077000E552E552E552E5520F014951EA6AE50FAB
:10078000E96E000EEA22F1C0EFFF492B4A6B040E1E
:100790000F01495D04E3090E486F4A6B496B4A51EA
:1007A000106E116AD890115004E6C80E105C000E4D
:1007B000115801E2D9D14FD14A2BE3C0E6FFE4C082
:1007C000E6FF3DDAE552E552000910E0920EE66ED2
:1007D0002E0EE66EE66A010EE66E3DEC0EF0E55278
:1007E000E552E552E5520F010A0E4ED1800EE66E3B
:1007F0002D0EE66EE66AE66A3DEC0EF0E552E55235
:10080000E552E552920EE66E2E0EE66EE66A010E97
:10081000E66E3DEC0EF0E552E552E552E5520A0E69
:100820000F014A5D01E2A0D1080E4ED14A2B6F0E96
:10083000E66E2D0EE66EE66AE66A3DEC0EF0E552D7
:10084000E552E552E5528FDA000919E06E0EE66EC8
:100850002E0EE66E49CFE6FF010EE66E3DEC0EF081
:10086000E552E552E552E5520F014951EA6AE90FB6
:10087000E96E000EEA22F1C0EFFF492B4A6B040E2D
:100880000F01495D12E3920EE66E2E0EE66EE66AE9
:10089000010EE66E3DEC0EF0E552E552E552E552F2
:1008A0000F010B0E486F4A6B496B4A51106E116A6B
:1008B000D890115004E6C80E105C000E115801E2E9
:1008C00053D145D04A2B5E0EE66E2D0EE66EE66ADB
:1008D000E66A3DEC0EF0E552E552E552E55243DAA8
:1008E000000919E06E0EE66E2E0EE66E49CFE6FFA9
:1008F000010EE66E3DEC0EF0E552E552E552E55292
:100900000F014951EA6AED0FE96E000EEA22F1C0CB
:10091000EFFF492B4A6B040E0F01495D0CE36BD9C5
:10092000000904E022D90F010C0E02D00F010D0EB8
:10093000486F4A6B496B4A51106E116AD89011503A
:1009400004E6C80E105C000E115801E20DD1050E30
:10095000486F4A6B496B12004A2B4D0EE66E2D0E06
:10096000E66EE66AE66A3DEC0EF0E552E552E552C7
:10097000E552920EE66E2E0EE66EE66A010EE66E09
:100980003DEC0EF0E552E552E552E552140E0F0132
:100990004A5D01E2E9D0050E97D04A2B3C0EE66E87
:1009A0002D0EE66EE66AE66A3DEC0EF0E552E55283
:1009B000E552E552920EE66E2E0EE66EE66A010EE6
:1009C000E66E3DEC0EF0E552E552E552E552140EAE
:1009D0000F014A5D01E2C8D00A0E76D04A2B700E94
:1009E000E66E2E0EE66EE66AE66A3DEC0EF0E55225
:1009F000E552E552E552B7D9000919E06E0EE66EF0
:100A00002E0EE66E49CFE6FF010EE66E3DEC0EF0CF
:100A1000E552E552E552E5520F014951EA6AE50F08
:100A2000E96E000EEA22F1C0EFFF492B4A6B040E7B
:100A30000F01495D04E30F0E486F4A6B496B4A5141
:100A4000106E116AD890115004E6C80E105C000EAA
:100A5000115801E289D04A6B496B050E15D04A2B1B
:100A600022D9000913E0920EE66E2E0EE66EE66ABB
:100A7000010EE66E3DEC0EF0E552E552E552E55210
:100A80000101216B0F01110E486F1200800EE66EFE
:100A90002D0EE66EE66AE66A3DEC0EF0E552E55292
:100AA000E552E552920EE66E2E0EE66EE66A010EF5
:100AB000E66E3DEC0EF0E552E552E552E5520A0EC7
:100AC0000F014A5D51E3050E486F4A6B12004A2B35
:100AD0002B0EE66E2D0EE66EE66AE66A3DEC0EF033
:100AE000E552E552E552E5520101210505E1216B90
:100AF0000F01120E486F4A6B0F014A51106E116AB6
:100B0000113408E21050C808000E11542DE2050EF1
:100B1000486F4A6B12004A2B5FD94D0EE66E2D0EC0
:100B2000E66EE66AE66A3DEC0EF0E552E552E55205
:100B3000E552140E0F014A5D17E312D04A2B6DD90E
:100B40001A0EE66E2D0EE66EE66AE66A3DEC0EF0D3
:100B5000E552E552E552E552140E0F014A5D04E3F9
:100B6000050E486F4A6B12001200D9CFE6FFE1CFA5
:100B7000D9FF020EE126DE6ADD6ADE6ADD6ADECFBB
:100B800010F0DDCF11F0D890115004E6040E105C87
:100B9000000E115826E2DECFE9FFDDCFEAFFED0EB1
:100BA000E926000EEA22EF50E66EE3C010F0E4C042
:100BB00011F0D89010361136D89010361136200E1C
:100BC00010260F0E1122DE501024E96EDD50112088
:100BD000EA6EE552E750EF6EDF2A010ED0E3DB2A22
:100BE000CED7020EE15C02E2E16AE552E16EE55227
:100BF000E7CFD9FF1200D9CFE6FFE1CFD9FFE65208
:100C0000DF6A040EDF5C15E2DF50EA6AE90FE96E85
:100C1000000EEA22EFCF10F0DF50EA6AED0FE96E26
:100C2000000EEA22EF50105C02E0000E03D0DF2A33
:100C3000E8D7010EE552E552E7CFD9FF1200D9CF30
:100C4000E6FFE1CFD9FFE652DF6A040EDF5C25E262
:100C5000DF50EA6AE50FE96E000EEA22EFCF10F0EE
:100C6000FD0EDBCF11F0FE0EDBCF12F0D890113667
:100C70001236D89011361236200E11260F0E12227F
:100C8000DF501124E96E000E1220EA6EEF50105C66
:100C900002E0000E03D0DF2AD8D7010EE552E5525C
:100CA000E7CFD9FF1200D9CFE6FFE1CFD9FF040E7D
:100CB000E126010EF36E020EF3CFDBFF030EDB6ABB
:100CC000DF6A050EDF5C43E2010EF36E020EF3CF26
:100CD000DBFF030EDB6A010EDB6A040EF36E010E0E
:100CE000DBCFF4FFF350F45C24E2010EDB50EA6A40
:100CF000E50FE96E000EEA22EFCF10F0DF50040D91
:100D0000F3CF11F0F4CF12F0200E11260F0E1222A5
:100D1000010EDB501124E96E000E1220EA6EEF5036
:100D2000105C04E0020EDB6A030EDB6A010EDB2AB4
:100D3000D4D7D950020FE96EDACFEAFF010EEE18D0
:100D400004E1ED5002E1DF2802D0DF2ABAD7106EAD
:100D5000040EE15C02E2E16AE552E16E1050E552F8
:100D6000E7CFD9FF1200D9CFE6FFE1CFD9FFE65296
:100D7000DF6ADF5007081AE3EA6ADF34FE0BEA365F
:100D8000E96E4C0EE9260F0EEA22010EEE180CE178
:100D9000ED500AE1DF50EA6A100FE96E0F0EEA2209
:100DA000EFCFF1F0010E03D0DF2AE3D7000EE552BA
:100DB000E552E7CFD9FF12000F01010E521903E1EE
:100DC000535101E1010C000C0F01010E5A1903E10E
:100DD0005B5101E1010C000CD9CFE6FFE1CFD9FF57
:100DE000E652DF6A0E0EDF5C13E2DF50EA6AF20FB2
:100DF000E96E000EEA22EF50E66EDF50EA6A340F29
:100E0000E96E0F0EEA22E552E750EF6EDF2AEAD7CD
:100E1000E552E552E7CFD9FF1200D9CFE6FFE1CF87
:100E2000D9FFE652DF6A0E0EDF5C09E2DF50EA6AA4
:100E3000340FE96E0F0EEA22EF6ADF2AF4D7E5528B
:100E4000E552E7CFD9FF1200D9CFE6FFE1CFD9FFB6
:100E5000E652DF6A0E0EDF5C15E2DF50EA6A340FFD
:100E6000E96E0F0EEA22EFCF10F0DF50EA6AF20FC0
:100E7000E96E000EEA22EF50105C02E0000E03D093
:100E8000DF2AE8D7010EE552E552E7CFD9FF12007D
:100E9000000EE66EE66AFBEC00F0E552E552120049
:100EA000000EE66EE66AD3EC00F0E552E552120061
:100EB000D9CFE6FFE1CFD9FF040EE126DE6ADD6A75
:100EC000DECF10F0DDCF11F0126A136A11AE02D03E
:100ED00012681368D950FB0FE96EFF0EDA20EA6E34
:100EE000EE50105CEE501158EE501258EE50135860
:100EF0001DE2020EDB6A030EDB6A020EDBCF10F08E
:100F0000030EDBCF11F0D890115004E6050E105CF3
:100F1000000E115806E2020EDB2A030EEEE3DB2A76
:100F2000ECD7DF2A010ECCE3DB2ACAD7040EE15C42
:100F300002E2E16AE552E16EE552E7CFD9FF120025
:100F4000D9CFE6FFE1CFD9FF040EE126DE6ADD6AE4
:100F5000DECF10F0DDCF11F0126A136A11AE02D0AD
:100F600012681368D950FB0FE96EFF0EDA20EA6EA3
:100F7000EE50105CEE501158EE501258EE501358CF
:100F80001DE2020EDB6A030EDB6A020EDBCF10F0FD
:100F9000030EDBCF11F0D890115004E6EE0E105C7A
:100FA000000E115806E2020EDB2A030EEEE3DB2AE6
:100FB000ECD7DF2A010ECCE3DB2ACAD7040EE15CB2
:100FC00002E2E16AE552E16EE552E7CFD9FF120095
:100FD000D9CFE6FFE1CFD9FF0F0E8116FE0EDB5011
:100FE000F00B81128186010EE66EE66AE66AE66A19
:100FF000A7DFE552E552E552E5528196010EE66E15
:10100000E66AE66AE66A9CDFE552E552E552E55299
:101010000F0E8116FE0EDB38F00B81128186010E59
:10102000E66EE66AE66AE66A8BDFE552E552E5526D
:10103000E5528196010EE66EE66AE66AE66A80DFB0
:10104000E552E552E552E552E552E7CFD9FF1200ED
:10105000D9CFE6FFE1CFD9FFE652190EE66EE66A78
:10106000E66AE66A6DDFE552E552E552E5520F0E9B
:101070008116F80E81160F0E8116300E81128186B0
:10108000010EE66EE66AE66AE66A5ADFE552E55266
:10109000E552E5528196010EE66EE66AE66AE66A78
:1010A0004FDFE552E552E552E5520F0E8116300E44
:1010B00081128186010EE66EE66AE66AE66A40DF24
:1010C000E552E552E552E5528196010EE66EE66A7A
:1010D000E66AE66A35DFE552E552E552E5520F0E63
:1010E0008116300E81128186010EE66EE66AE66A8E
:1010F000E66A26DFE552E552E552E5528196010E99
:10110000E66EE66AE66AE66A1BDFE552E552E552FC
:10111000E5520F0E8116818A8186010EE66EE66A1F
:10112000E66AE66A0DDFE552E552E552E552819640
:10113000010EE66EE66AE66AE66A02DFE552E5520D
:10114000E552E552280EE66E43DFE5520C0EE66EE0
:101150003FDFE552E552E552E7CFD9FF1200D9CF84
:10116000E6FFE1CFD9FF020EE126DF6A010EDB6A5E
:1011700081940F0EE66EE66AE66AE66A99DEE5524B
:10118000E552E552E5520F0E81128186E66EE66A5F
:10119000E66AE66A8DDEE552E552E552E5520F0E4B
:1011A0008114E76E010EE7CFDBFF81960F0EE66E2E
:1011B000E66AE66AE66A7CDEE552E552E552E55209
:1011C0000F0E81128186E66EE66AE66AE66A70DED6
:1011D000E552E552E552E5520F0E8114DF6E010E25
:1011E000DB50DF128196010EE66EE66AE66AE66A79
:1011F0005FDEE552E552E552E552DF50106E020E19
:10120000E15C02E2E16AE552E16E1050E552E7CF9F
:10121000D9FF1200D9CFE6FFE1CFD9FFE652DF6A4E
:101220009EDFDF6EDFBEFCD7DF50E552E552E7CF31
:10123000D9FF1200D9CFE6FFE1CFD9FF0F0E8116FB
:10124000FE0EDB5081128186050EE66EE66AE66AC6
:10125000E66A2EDEE552E552E552E5528196050E2C
:10126000E66EE66AE66AE66A23DEE552E552E55294
:10127000E552E552E7CFD9FF1200D9CFE6FFE1CF23
:10128000D9FF8194050EE66EE66AE66AE66A10DE2C
:10129000E552E552E552E552FE0EDBCFE6FFCADF2E
:1012A000E552FE0EDB38F00BE66EC4DFE552E55288
:1012B000E7CFD9FF1200D9CFE6FFE1CFD9FF818474
:1012C000050EE66EE66AE66AE66AF2DDE552E5528A
:1012D000E552E552FE0EDBCFE6FFACDFE552FE0E37
:1012E000DB38F00BE66EA6DFE5528194E552E7CFDE
:1012F000D9FF1200D9CFE6FFE1CFD9FFFE0EDBCF39
:10130000E6FFD9DFE552E552E7CFD9FF1200D9CF8A
:10131000E6FFE1CFD9FFFE0EDBCFE6FFCCDFE552E3
:10132000E552E7CFD9FF1200D9CFE6FFE1CFD9FFD1
:10133000FD0EDBCFF6FFFE0EDBCFF7FF0800F5500A
:101340000FE0FD0EDBCFF6FFDB2AFE0EDBCFF7FF53
:1013500001E3DB2A0800F550E66ED9DFE552E8D755
:10136000E552E7CFD9FF1200D9CFE6FFE1CFD9FF91
:10137000E652FD0EDB500F0B106EFE0EDB50010B24
:10138000400DF3501024DF6E7F0EDF14800FDF6EF0
:10139000DFCFE6FF72DFE552E552E552E7CFD9FF36
:1013A0001200010EE66E69DFE552E66AE66ADCDFEE
:1013B000E552E5521200D9CFE6FFE1CFD9FF050E85
:1013C000E126010EF36EDB6E020EDB6A030EDB6AB2
:1013D000040EDB6ADF6ADFCF10F0116A10BE1168FD
:1013E000FB0EDBCF12F0FC0EDBCF13F01150131805
:1013F000E8AE02D0133404D01250105C13501158D0
:101400002DE2FD0EDBCF10F0FE0EDBCF11F0126AE5
:10141000136A11AE02D012681368D950010FE96E39
:10142000DACFEAFF10C00BF011C00CF012C00DF0C3
:1014300013C00EF0EECF06F0EECF07F0EECF08F0BF
:10144000EFCF09F0FCEC17F005C0EDFF04C0EDFF95
:1014500003C0EDFF02C0EFFFDF2ABDD7010EDBCFD7
:1014600010F0020EDBCF11F0030EDBCF12F0040EF2
:10147000DBCF13F010C006F011C007F012C008F067
:1014800013C009F0050EE15C02E2E16AE552E16E8B
:10149000E552E7CFD9FF1200D9CFE6FFE1CFD9FF60
:1014A000020EE126DF6AFB0EDBCF10F0FC0EDBCF75
:1014B00011F0FD0EDBCF12F0FE0EDBCF13F010505B
:1014C00011101210131005E1300EE66E20DFE55208
:1014D000F4D0D950FB0FE96EFF0EDA20EA6ED890F7
:1014E000030EEB50000A08E6000EEE5C000EEE580C
:1014F000000EEE58000EEE5815E22D0EE66E07DFD8
:10150000E552D950FB0FE96EFF0EDA20EA6E000EAD
:10151000EE6CEF1EEE22EF1EEE22EF1EEF22ED52DA
:10152000ED52ED52DE52070EDD6E010EDBCF10F0F4
:10153000000EE76E1018E8AE02D0103403D0E7506A
:10154000D880105401E3B9D0010EDB04146E156A83
:1015500014BE156814C0E6FF15C0E6FF0A0EE66E5D
:10156000E66A29DFE552E552E552E55206C010F081
:1015700007C011F008C012F009C013F006C00BF04C
:1015800007C00CF008C00DF009C00EF0FB0EDBCF59
:1015900006F0FC0EDBCF07F0FD0EDBCF08F0FE0EF1
:1015A000DBCF09F034EC18F00650071008100910D2
:1015B00041E0010EDF6EDB04186E196A18BE19686F
:1015C00018C0E6FF19C0E6FF0A0EE66EE66AF3DE13
:1015D000E552E552E552E55206C014F007C015F099
:1015E00008C016F009C017F006C00BF007C00CF0D9
:1015F00008C00DF009C00EF0FB0EDBCF06F0FC0EAC
:10160000DBCF07F0FD0EDBCF08F0FE0EDBCF09F0DD
:1016100034EC18F006C010F007C011F008C012F04A
:1016200009C013F0300E1026000E112212221322D0
:10163000105003D0DF5004E0300EE66E68DEE55255
:10164000010EDB04146E156A14BE156814C0E6FFA3
:1016500015C0E6FF0A0EE66EE66AADDEE552E5521B
:10166000E552E55206C010F007C011F008C012F0B4
:1016700009C013F0D950FB0FE96EFF0EDA20EA6EB5
:1016800006C00BF007C00CF008C00DF009C00EF04A
:10169000EECF06F0EECF07F0EECF08F0EFCF09F077
:1016A00034EC18F005C0EDFF04C0EDFF03C0EDFF02
:1016B00002C0EFFF010EDB0638D7020EE15C02E24A
:1016C000E16AE552E16EE552E7CFD9FF1200D9CFCA
:1016D000E6FFE1CFD9FFFD0EDBCFE6FFFE0EDBCF4D
:1016E000E6FF42DEE552E552D950F90FE96EFF0EF2
:1016F000DA20EA6EEECFE6FFEECFE6FFEECFE6FFB2
:10170000EFCFE6FFC9DEE552E552E552E552E5527C
:10171000E7CFD9FF1200D9CFE6FFE1CFD9FFFD0E09
:10172000DBCFE6FFFE0EDBCFE6FF1EDEE552E55225
:10173000FB0EDBCFE6FFFC0EDBCFE6FFF5DDE5526F
:10174000E552E552E7CFD9FF1200D9CFE6FFE1CF4E
:10175000D9FF24C110F025C111F0040ED890103625
:101760001136E806FBE1C10E1026000E11221050C2
:1017700001012625E96E11502721EA6EFE0EDBCF0E
:10178000EFFF262B000E2723E552E7CFD9FF1200EB
:10179000D9CFE6FFE1CFD9FFE652DF6ADFCF10F005
:1017A000100EE76E1018E8AE02D0E73402D0E75012
:1017B000105C18E2DFCFE9FFEA6AE9BEEA68C10E11
:1017C000E926000EEA22200EEF6EDFCFE9FFEA6A7B
:1017D000E9BEEA68D10EE926000EEA22200EEF6E7D
:1017E000DF2ADCD7E552E552E7CFD9FF1200D9CF87
:1017F000E6FFE1CFD9FFE6520001C051030A52E0F3
:10180000010A36E0030A1AE0010A67E1E66AE66ABD
:10181000ABDDE552E552DF6A080EDF5C0CE2DF501B
:10182000EA6AC10FE96E000EEA22EF50E66E6FDD44
:10183000E552DF2AF1D70001010E32D0080EE66E24
:10184000E66A92DDE552E552DF6A080EDF5C0DE2E2
:10185000080EDF24EA6AC10FE96E000EEA22EF509B
:10186000E66E55DDE552DF2AF0D70001020E18D0F2
:10187000E66A010EE66E78DDE552E552DF6A080E93
:10188000DF5C0CE2DF50EA6AD10FE96E000EEA225B
:10189000EF50E66E3CDDE552DF2AF1D70001030E82
:1018A000C06F1CD0080EE66E010EE66E5DDDE552DF
:1018B000E552DF6A080EDF5C0DE2080EDF24EA6AFB
:1018C000D10FE96E000EEA22EF50E66E20DDE55200
:1018D000DF2AF0D70001C06B01D0C06BE552E552A2
:1018E000E7CFD9FF1200D9CFE6FFE1CFD9FFE6520B
:1018F0000001C051010A1BE0010A32E1E66AE66A12
:1019000033DDE552E552DF6A100EDF5C0CE2DF509A
:10191000EA6AC10FE96E000EEA22EF50E66EF7DCCC
:10192000E552DF2AF1D70001010EC06F1AD0E66A36
:10193000010EE66E19DDE552E552DF6A100EDF5C3E
:101940000CE2DF50EA6AD10FE96E000EEA22EF5096
:10195000E66EDDDCE552DF2AF1D70001C06B01D075
:10196000C06BE552E552E7CFD9FF1200D9CFE6FFB1
:10197000E1CFD9FFE652E66AE66AF6DCE552E552C7
:10198000DF6A100EDF5C0CE2DF50EA6AC10FE96E1D
:10199000000EEA22EF50E66EBADCE552DF2AF1D7FC
:1019A000E66A010EE66EE0DCE552E552DF6A100EF3
:1019B000DF5C0CE2DF50EA6AD10FE96E000EEA222A
:1019C000EF50E66EA4DCE552DF2AF1D7E552E5528E
:1019D000E7CFD9FF1200D9CFE6FFE1CFD9FFFE0E46
:1019E000DB50010B0101246F256BFD0EDB500F0B4B
:1019F000266F276B24C110F025C111F0040ED8907A
:101A000010361136E806FBE1C10E1026000E112239
:101A1000105001012625E96E11502721EA6EFC0EB7
:101A2000DBCFEFFFE552E7CFD9FF1200D9CFE6FFBA
:101A3000E1CFD9FF020EE126DF6AFE0EDB50010B7B
:101A40000101246F256BFD0EDB500F0B266F276BFA
:101A5000F90EDBCF10F0FA0EDBCF11F0FB0EDBCF6F
:101A600012F0FC0EDBCF13F01050111012101310F7
:101A700005E1300EE66E69DEE552F5D0D950F90F7A
:101A8000E96EFF0EDA20EA6ED890030EEB50000AE2
:101A900008E6000EEE5C000EEE58000EEE58000E4A
:101AA000EE5815E22D0EE66E50DEE552D950F90FD4
:101AB000E96EFF0EDA20EA6E000EEE6CEF1EEE22EB
:101AC000EF1EEE22EF1EEF22ED52ED52ED52DE52EE
:101AD000070EDD6E010EDBCF10F0000EE76E101862
:101AE000E8AE02D0103403D0E750D880105401E3A0
:101AF000BAD0010EDB04146E156A14BE156814C04A
:101B0000E6FF15C0E6FF0A0EE66EE66A54DCE55213
:101B1000E552E552E55206C010F007C011F008C0CA
:101B200012F009C013F006C00BF007C00CF008C09B
:101B30000DF009C00EF0F90EDBCF06F0FA0EDBCF88
:101B400007F0FB0EDBCF08F0FC0EDBCF09F034EC26
:101B500018F0065007100810091041E0010EDF6E62
:101B6000DB04186E196A18BE196818C0E6FF19C0A0
:101B7000E6FF0A0EE66EE66A1EDCE552E552E55225
:101B8000E55206C014F007C015F008C016F009C0F1
:101B900017F006C00BF007C00CF008C00DF009C02C
:101BA0000EF0F90EDBCF06F0FA0EDBCF07F0FB0EDE
:101BB000DBCF08F0FC0EDBCF09F034EC18F006C0E8
:101BC00010F007C011F008C012F009C013F0300E79
:101BD0001026000E112212221322105003D0DF50C3
:101BE00004E0300EE66EB1DDE552010EDB04146E4A
:101BF000156A14BE156814C0E6FF15C0E6FF0A0E8C
:101C0000E66EE66ADBEC09F0E552E552E552E55294
:101C100006C010F007C011F008C012F009C013F0A0
:101C2000D950F90FE96EFF0EDA20EA6E06C00BF00C
:101C300007C00CF008C00DF009C00EF0EECF06F0A2
:101C4000EECF07F0EECF08F0EFCF09F034EC18F04C
:101C500005C0EDFF04C0EDFF03C0EDFF02C0EFFFC4
:101C6000010EDB0637D7020EE15C02E2E16AE552C3
:101C7000E16EE552E7CFD9FF1200D9CFE6FFE1CF01
:101C8000D9FFFE0EDB50010B0101246F256BFD0E09
:101C9000DB500F0B266F276BFB0EDBCFF6FFFC0E26
:101CA000DBCFF7FF0800F5500FE0FB0EDBCFF6FFB0
:101CB000DB2AFC0EDBCFF7FF01E3DB2A0800F5503F
:101CC000E66E43DDE552E8D7E552E7CFD9FF1200D3
:101CD000D9CFE6FFE1CFD9FFD59EFD0EDBCF00F1D6
:101CE000FE0EDBCF01F1D59C13681468156A00C1A4
:101CF00016F001C117F0186A1650135C106E1750D9
:101D00001458116E18501558126E0C6A010E0D6E93
:101D10000E6A10C007F011C008F012C009F080EC84
:101D200017F00350D66E13681468156A00C116F0D8
:101D300001C117F0186A1650135C106E1750145832
:101D4000116E18501558126E0C6A010E0D6E0E6A47
:101D500010C007F011C008F012C009F080EC17F0B5
:101D600007C010F008C011F009C012F00750D76E7C
:101D7000D59AD586F28AF294F184D58EE552E7CFD2
:101D8000D9FF1200D59E120013681468156A00C1AD
:101D900016F001C117F0186A1650135C106E175038
:101DA0001458116E18501558126E0C6A010E0D6EF3
:101DB0000E6A10C007F011C008F012C009F080ECE4
:101DC00017F00350D66E13681468156A00C116F038
:101DD00001C117F0186A1650135C106E1750145892
:101DE000116E18501558126E0C6A010E0D6E0E6AA7
:101DF00010C007F011C008F012C009F080EC17F015
:101E000007C010F008C011F009C012F00750D76EDB
:101E1000D58E1200D9CFE6FFE1CFD9FFCD90FD0ED0
:101E2000DBCF02F1FE0EDBCF03F113681468156AF5
:101E300002C116F003C117F0186A1650135C106E39
:101E400017501458116E18501558126E0C6A010E66
:101E50000D6E0E6A10C007F011C008F012C009F034
:101E600080EC17F00750CF6E13681468156A02C132
:101E700016F003C117F0186A1650135C106E175055
:101E80001458116E18501558126E0C6A010E0D6E12
:101E90000E6A10C007F011C008F012C009F080EC03
:101EA00017F003C010F004C011F005C012F0035089
:101EB000CE6E9D809E909F90CD8ECD8CCD98CD9AEC
:101EC000CD96CD92CD80E552E7CFD9FF12001368B1
:101ED0001468156A02C116F003C117F0186A16508B
:101EE000135C106E17501458116E18501558126E5E
:101EF0000C6A010E0D6E0E6A10C007F011C008F0DA
:101F000012C009F080EC17F00750CF6E1368146808
:101F1000156A02C116F003C117F0186A1650135C57
:101F2000106E17501458116E18501558126E0C6A16
:101F3000010E0D6E0E6A10C007F011C008F012C03D
:101F400009F080EC17F003C010F004C011F005C0D8
:101F500012F00350CE6ECD801200CD901200D9CF7A
:101F6000E6FFE1CFD9FFCA94CC6AFE0EDB50010137
:101F7000046F056BCB6E9D829E929F92CA90CA920F
:101F8000CA84E552E7CFD9FF120004C1CBFFCA844F
:101F90001200CA941200D9CFE6FFE1CFD9FFB19069
:101FA000FD0EDBCF06F1FE0EDBCF07F113681468E0
:101FB000156A06C116F007C117F0186A1650135CAF
:101FC000106E17501458116E18501558126E0C6A76
:101FD000010E0D6E0E6A10C007F011C008F012C09D
:101FE00009F080EC17F00750B36E13681468156A97
:101FF00006C116F007C117F0186A1650135C106E70
:1020000017501458116E18501558126E0C6A010EA4
:102010000D6E0E6A10C007F011C008F012C009F072
:1020200080EC17F003C010F004C011F005C012F0EE
:102030000350B26EA082A192A292B18EB198B19AD1
:10204000B192B180E552E7CFD9FF1200136814684E
:10205000156A06C116F007C117F0186A1650135C0E
:10206000106E17501458116E18501558126E0C6AD5
:10207000010E0D6E0E6A10C007F011C008F012C0FC
:1020800009F080EC17F00350B26E13681468156AFB
:1020900006C116F007C117F0186A1650135C106ECF
:1020A00017501458116E18501558126E0C6A010E04
:1020B0000D6E0E6A10C007F011C008F012C009F0D2
:1020C00080EC17F007C010F008C011F009C012F042
:1020D0000750B36EB1801200B19012000101102BB5
:1020E000000E11231851105D1951115904E3106BA2
:1020F000116B010E086F12000101122B000E132349
:102100001A51125D1B51135904E3126B136B010E2C
:10211000096F12000101142B000E15231C51145DD0
:102120001D51155904E3146B156B010E0A6F120053
:102130000101162B000E17231E51165D1F51175952
:1021400004E3166B176B010E0B6F1200D9CFE6FF7D
:10215000E1CFD9FFFD0EDBCF18F1FE0EDBCF19F179
:102160000101106B116B086BE552E7CFD9FF12002C
:10217000D9CFE6FFE1CFD9FFFD0EDBCF1AF1FE0E7E
:10218000DBCF1BF1050E0D6E0E6A1AC108F01BC1E4
:1021900009F05AEC17F008C01AF109C01BF101014F
:1021A000126B136B096BE552E7CFD9FF1200D9CF41
:1021B000E6FFE1CFD9FFFD0EDBCF1EF1FE0EDBCF38
:1021C0001FF10A0E0D6E0E6A1EC108F01FC109F044
:1021D0005AEC17F008C01EF109C01FF10101166B7F
:0C21E000176B0B6BE552E7CFD9FF120024
:0421EC00B06A810E46
:1021F000AF6EAC8AAC94B886AC98AB8EAB889E9A26
:102200009D8A9F9A949C948E1200D9CFE6FFE1CFCD
:10221000D9FF040EE126DE6ADD6ADECF10F0DDCFE5
:1022200011F0FD0EDBCF12F0FE0EDBCF13F01150DC
:102230001318E8AE02D0133404D01250105C1350BF
:1022400011581DE2020EDB6A030EDB6A020EDBCFC1
:1022500010F0030EDBCF11F0D890115004E6EE0E13
:10226000105C000E115806E2020EDB2A030EEEE3AC
:10227000DB2AECD7DF2A010ED0E3DB2ACED7040E0F
:10228000E15C02E2E16AE552E16EE552E7CFD9FF97
:102290001200D9CFE6FFE1CFD9FF9EA8FED7FE0EF0
:1022A000DB50AD6E9E98E552E7CFD9FF1200D9CF33
:1022B000E6FFE1CFD9FFFD0EDBCFE9FFFE0EDBCF5E
:1022C000EAFFEF5010E0FD0EDBCFE9FFFE0EDBCFA3
:1022D000EAFFEF50E66EDDDFE552FD0EDB2AFE0E73
:1022E000EAE3DB2AE8D7E552E7CFD9FF1200D9CFDE
:1022F000E6FFE1CFD9FFFD0EDBCFF6FFFE0EDBCF11
:10230000F7FF0800F55015E0FD0EDBCFF6FFFE0EDF
:10231000DBCFF7FF0800F550E66EBBDFE552FD0EA0
:10232000DBCFF6FFDB2AFE0EDBCFF7FFE4E3DB2A91
:10233000E2D7E552E7CFD9FF1200D9CFE6FFE1CFD0
:10234000D9FF050EE126010EF36EDB6E020EDB6A8D
:10235000030EDB6A040EDB6ADF6ADFCF10F0116A5E
:1023600010BE1168FB0EDBCF12F0FC0EDBCF13F0BA
:1023700011501318E8AE02D0133404D01250105C80
:10238000135011582DE2FD0EDBCF10F0FE0EDBCF07
:1023900011F0126A136A11AE02D012681368D95094
:1023A000010FE96EDACFEAFF10C00BF011C00CF09C
:1023B00012C00DF013C00EF0EECF06F0EECF07F016
:1023C000EECF08F0EFCF09F0FCEC17F005C0EDFF01
:1023D00004C0EDFF03C0EDFF02C0EFFFDF2ABDD751
:1023E000010EDBCF10F0020EDBCF11F0030EDBCFBE
:1023F00012F0040EDBCF13F010C006F011C007F08E
:1024000012C008F013C009F0050EE15C02E2E16AB7
:10241000E552E16EE552E7CFD9FF1200D9CFE6FFD2
:10242000E1CFD9FF020EE126DF6AFB0EDBCF10F011
:10243000FC0EDBCF11F0FD0EDBCF12F0FE0EDBCF7A
:1024400013F0105011101210131005E1300EE66E4B
:1024500020DFE552F4D0D950FB0FE96EFF0EDA20F1
:10246000EA6ED890030EEB50000A08E6000EEE5C10
:10247000000EEE58000EEE58000EEE5815E22D0E2E
:10248000E66E07DFE552D950FB0FE96EFF0EDA204A
:10249000EA6E000EEE6CEF1EEE22EF1EEE22EF1E35
:1024A000EF22ED52ED52ED52DE520A0EDD6E010EBC
:1024B000DBCF10F0000EE76E1018E8AE02D010343B
:1024C00003D0E750D880105401E3B9D0010EDB04EB
:1024D000146E156A14BE156814C0E6FF15C0E6FF39
:1024E0000A0EE66EE66A29DFE552E552E552E5524C
:1024F00006C010F007C011F008C012F009C013F0B8
:1025000006C00BF007C00CF008C00DF009C00EF0BB
:10251000FB0EDBCF06F0FC0EDBCF07F0FD0EDBCFB2
:1025200008F0FE0EDBCF09F034EC18F0065007106F
:102530000810091041E0010EDF6EDB04186E196A05
:1025400018BE196818C0E6FF19C0E6FF0A0EE66E4D
:10255000E66AF3DEE552E552E552E55206C014F0B4
:1025600007C015F008C016F009C017F006C00BF040
:1025700007C00CF008C00DF009C00EF0FB0EDBCF59
:1025800006F0FC0EDBCF07F0FD0EDBCF08F0FE0EF1
:10259000DBCF09F034EC18F006C010F007C011F0E2
:1025A00008C012F009C013F0300E1026000E1122E0
:1025B00012221322105003D0DF5004E0300EE66EDA
:1025C00068DEE552010EDB04146E156A14BE156850
:1025D00014C0E6FF15C0E6FF0A0EE66EE66AADDE41
:1025E000E552E552E552E55206C010F007C011F081
:1025F00008C012F009C013F0D950FB0FE96EFF0EAE
:10260000DA20EA6E06C00BF007C00CF008C00DF02F
:1026100009C00EF0EECF06F0EECF07F0EECF08F0D7
:10262000EFCF09F034EC18F005C0EDFF04C0EDFF6A
:1026300003C0EDFF02C0EFFF010EDB0638D7020E2C
:10264000E15C02E2E16AE552E16EE552E7CFD9FFD3
:102650001200D9CFE6FFE1CFD9FFE652AE50DF6ED0
:102660000101225112E1020EDF5C0FE123C1E9FFFB
:10267000EA6AE9BEEA68F20EE926000EEA22DFCF36
:10268000EFFF010E226F232B18D0220514E123C186
:10269000E9FFEA6AE9BEEA68F20EE926000EEA22DC
:1026A000DFCFEFFF232B0E0E235D07E1236B226BA1
:1026B000010E216F02D0226B236BE552E552E7CF6A
:0826C000D9FF120029EF13F00D
:0826C8000F0E946E82681200EF
:1026D000070E9410946ECF0E9414946E82681200BC
:1026E000D9CFE6FFE1CFD9FF040EE126DE6ADD6A2D
:1026F000DECF10F0DDCF11F0D890115004E6040EBB
:10270000105C000E115801E390D0DECFE9FFDDCF61
:10271000EAFF6C0EE9260F0EEA22EF1C826E020E13
:10272000DB6A030EDB6A020EDBCF10F0030EDBCF99
:1027300011F0D890115004E6040E105C000E1158F0
:102740006EE2020EDBCFE9FF030EDBCFEAFF700E75
:10275000E9260F0EEA22EF5082143FE1DECF14F09B
:10276000DDCF15F0D89014361536D89014361536BE
:10277000020EDB501424E96E030EDB501520EA6EC6
:10278000D890E936EA364C0EE9260F0EEA22EECF53
:1027900012F0EFCF13F0010E1226000E1322DECF3F
:1027A00010F0DDCF11F0D89010361136D8901036D9
:1027B0001136020EDB501024E96E030EDB5011209F
:1027C000EA6ED890E936EA364C0EE9260F0EEA2278
:1027D00012C0EEFF13C0EDFF1BD0DECF10F0DDCF37
:1027E00011F0D89010361136D89010361136020EEE
:1027F000DB501024E96E030EDB501120EA6ED890F6
:10280000E936EA364C0EE9260F0EEA22EE6AED6A48
:10281000020EDB2A030E01E286D7DB2A84D7DF2AE9
:10282000010E01E265D7DB2A63D7040EE15C02E208
:10283000E16AE552E16EE552E7CFD9FF1200D9CF48
:10284000E6FFE1CFD9FF040EE126DE6ADD6ADECFC6
:1028500010F0DDCF11F0D890115004E6020E105C9C
:10286000000E115801E390D0DECFE9FFDDCFEAFF83
:102870006C0EE9260F0EEA22EF1C826E020EDB6A56
:10288000030EDB6A020EDBCF10F0030EDBCF11F07C
:10289000D890115004E6040E105C000E11586EE240
:1028A000020EDBCFE9FF030EDBCFEAFF700EE92655
:1028B0000F0EEA22EF5082143FE1DECF14F0DDCF9D
:1028C00015F0D89014361536D89014361536020EF9
:1028D000DB501424E96E030EDB501520EA6ED8900D
:1028E000E936EA364C0EE9260F0EEA22EECF12F058
:1028F000EFCF13F0010E1226000E1322DECF10F0E0
:10290000DDCF11F0D89010361136D8901036113630
:10291000020EDB501024E96E030EDB501120EA6E2C
:10292000D890E936EA364C0EE9260F0EEA2212C09C
:10293000EEFF13C0EDFF1BD0DECF10F0DDCF11F0A6
:10294000D89010361136D89010361136020EDB5062
:102950001024E96E030EDB501120EA6ED890E936A0
:10296000EA364C0EE9260F0EEA22EE6AED6A020EF6
:10297000DB2A030E01E286D7DB2A84D7DF2A010E89
:1029800001E265D7DB2A63D7040EE15C02E2E16A6B
:10299000E552E16EE552E7CFD9FF1200D9CFE6FF4D
:1029A000E1CFD9FF040EE126DE6ADD6ADECF10F04A
:1029B000DDCF11F0FD0EDBCF12F0FE0EDBCF13F0FA
:1029C00011501318E8AE02D0133404D01250105C2A
:1029D000135011581DE2020EDB6A030EDB6A020E71
:1029E000DBCF10F0030EDBCF11F0D890115004E6CE
:1029F000EE0E105C000E115806E2020EDB2A030EEA
:102A0000EEE3DB2AECD7DF2A010ED0E3DB2ACED7B8
:102A1000040EE15C02E2E16AE552E16EE552E7CFC5
:102A2000D9FF1200D9CFE6FFE1CFD9FF040EE1268E
:102A3000DE6ADD6ADECF10F0DDCF11F0D8901150E4
:102A400004E6040E105C000E115875E2DECFE9FFBB
:102A5000DDCFEAFF6C0EE9260F0EEA22EF1C826E34
:102A6000020EDB6A030EDB6A020EDBCF10F0030EF0
:102A7000DBCF11F0D890115004E6040E105C000E6C
:102A800011584AE2DECF10F0DDCF11F0D8901036A9
:102A90001136D89010361136020EDB501024E96E34
:102AA000030EDB501120EA6ED890E936EA364C0E60
:102AB000E9260F0EEA22EE6AED6A020EDBCFE9FF8D
:102AC000030EDBCFEAFF700EE9260F0EEA22EF506D
:102AD00082141CE1DECF10F0DDCF11F0D89010365B
:102AE0001136D89010361136020EDB501024E96EE4
:102AF000030EDB501120EA6ED890E936EA364C0E10
:102B0000E9260F0EEA22010EEE6EED6A020EDB2AB6
:102B1000030EAAE3DB2AA8D78250816EE80EE66E88
:102B2000030EE66E3BDFE552E552DF2A010E01E2BD
:102B300081D7DB2A7FD7040EE15C02E2E16AE5522D
:0A2B4000E16EE552E7CFD9FF120065
:062B4A00F28ED08EF28C29
:102B50001200F19CF292F2881200D8CFE4FFE0CF8D
:102B6000E4FFE46EDACFE4FFE2CFDAFFE9CFE4FF7F
:102B7000EACFE4FFF6CFE4FFF7CFE4FFF5CFE4FFC1
:102B8000F3CFE4FFF4CFE4FFFACFE4FF00EE00F070
:102B9000100EE80403E3EECFE4FFFBD700EE10F0E5
:102BA0000A0EE80403E3EECFE4FFFBD7E652F2A4FB
:102BB00007D0C2EC0EF0F294C4EC0EF06EEC10F004
:102BC0009EA007D0ADEC0FF09E9067EC0FF07CEC70
:102BD00010F0A1A207D06CEC10F0A19226EC10F03E
:102BE00098EC10F0F2B2F2929EAA03D09E9A62EC98
:102BF00013F0E55200EE19F00A0EE80403E3E5CF06
:102C0000EDFFFBD700EE0FF0100EE80403E3E5CF75
:102C1000EDFFFBD7E5CFFAFFE5CFF4FFE5CFF3FFFC
:102C2000E5CFF5FFE5CFF7FFE5CFF6FFE5CFEAFF0C
:102C3000E5CFE9FFE5CFDAFFE550E5CFE0FFE5CFEF
:102C4000D8FF1000DACFE4FFE2CFDAFFE9CFE4FFEC
:102C5000EACFE4FFF6CFE4FFF7CFE4FFF5CFE4FFE0
:102C6000F3CFE4FFF4CFE4FFFACFE4FF00EE00F08F
:102C7000100EE80403E3EECFE4FFFBD700EE10F004
:102C80000A0EE80403E3EECFE4FFFBD7E652F2A41A
:102C900007D0C2EC0EF0F294C4EC0EF06EEC10F023
:102CA0009EA007D0ADEC0FF09E9067EC0FF07CEC8F
:102CB00010F0A1A207D06CEC10F0A19226EC10F05D
:102CC00098EC10F0F2B2F2929EAA03D09E9A62ECB7
:102CD00013F0E55200EE19F00A0EE80403E3E5CF25
:102CE000EDFFFBD700EE0FF0100EE80403E3E5CF95
:102CF000EDFFFBD7E5CFFAFFE5CFF4FFE5CFF3FF1C
:102D0000E5CFF5FFE5CFF7FFE5CFF6FFE5CFEAFF2B
:0A2D1000E5CFE9FFE5CFDAFF11007F
:062D1A0044454C45544500
:102D200020535543434553532120005343414E20E4
:102D30005448452043415244202020004E4F542007
:102D40005448452053414D452120202000535543F0
:102D50004345535346554C21202020202000434F0B
:102D60004E4649524D2050415353574F5244004E06
:102D700045572050415353574F52442020202000A4
:102D800057524F4E472050415353574F52442120E2
:102D9000004F4C442050415353574F524420202061
:102DA0002000534C4F54203520202020202020206C
:102DB000202000534C4F542034202020202020205D
:102DC00020202000534C4F5420332020202020204E
:102DD0002020202000534C4F54203220202020203F
:102DE000202020202000534C4F5420312020202030
:102DF00020202020202000413A456E74657220205A
:102E000020423A4D6F6465004C4F434B20444F4F76
:102E100052202020202020200044454C45544520AD
:102E20005246494420202020200053455420524639
:102E300049442020202020202020004348414E47A4
:102E4000452050415353574F524420005041535353
:102E5000574F52442057524F4E472020004F504565
:102E60004E494E4720444F4F5220202020002A0038
:102E7000454E5445522050415353574F5244202001
:102E80000057524F4E4720524649442120202020CF
:102E90002000202020202020202020202020202052
:102EA0002020005052455353204120464F5220507D
:042EB0004153530037
:0C2EB400006A0EAE63EF17F00D6C0E1EEE
:102EC000E86A0E22001E09AE6BEF17F0086C091EAF
:102ED000E86A0922001E75EC18F009BE7BEF17F0B6
:102EE00000AE000C086C091EE86A0922046C051E7D
:102EF000E86A0522000C00BE72EF17F00188FF0C93
:102F0000006A0EAE8BEF17F00C6C0D1E0E1EE86AF9
:102F10000D220E22001E09AE95EF17F0076C081E59
:102F2000091EE86A08220922001E58EC18F009BEA2
:102F3000A8EF17F000AE000C076C081E091EE86A27
:102F400008220922036C041E051E04220522000C1F
:0A2F500000BE9CEF17F00188FF0C93
:062F5A001E0EF66E000ED3
:102F6000F76E000EF86E0F010900F550796F090039
:102F7000F5507A6F03E1796701D03DD00900F55033
:102F8000746F0900F550756F0900F550766F0900F0
:102F90000900F550E96E0900F550EA6E09000900D4
:102FA0000900F550776F0900F550786F09000900A6
:102FB000F6CF7BFFF7CF7CFFF8CF7DFF74CFF6FF16
:102FC00075CFF7FF76CFF8FF0F01775302E1785303
:102FD00007E00900F550EE6E7707F8E27807F9D7B9
:102FE0007BCFF6FF7CCFF7FF7DCFF8FF0F0179078E
:082FF000000E7A5BBFD712004E
:082FF80006500B02F3CF02F0BA
:10300000F4CF03F00C02F3500326000EF420046EFC
:1030100006500D02F3500426000EF420056E0650F3
:103020000E02F350052607500B02F3500326F4500E
:103030000422000E052207500C02F3500426F4501F
:10304000052207500D02F350052608500B02F350DD
:103050000426F450052208500C02F35005260950AE
:083060000B02F35005261200DB
:08306800056A046A036A026AAA
:10307000200EE76ED8900636073608360936023637
:103080000336043605360B50025C0C5003580D50C5
:1030900004580E50055809E30B50025E0C50035AB9
:1030A0000D50045A0E50055A062AE72EE4D7120096
:1030B000056A046A036A180EE76ED8900736083668
:1030C00009360336043605360C50035C0D5004589F
:1030D0000E50055807E30C50035E0D50045A0E5075
:0A30E000055A072AE72EEAD712006E
:0630EA00056A046A100EE5
:1030F000E76ED89008360936043605360D50045C64
:103100000E50055805E30D50045E0E50055A082A6E
:06311000E72EF0D71200CB
:0A311600800EF36E00EE00F00F0EC5
:1031200001D81200EA6002D0EE6AFCD7F350E960E1
:063130001200EE6AFCD75C
:0A3136001EEE00F02EEE00F0F86A25
:10314000019CADEC17F003EC00F034EC00F0FBD781
:0231500012006B
:0E31520000000000000000000000000000006F
:10316000000000000000000000000000000000005F
:10317000000000000000000001000100010001004B
:103180000102040810204080000000000000000040
:103190000102034104050642070809432A00454489
:1031A00001020304010101010303030304050603F3
:1031B0000203020300000000000000000000000005
:0C31C00000000000000003000000000000
:0431CC0000000000FF
:1031D000000000001010101010101010181818180F
:1031E000181818181C1C1C1C1C1C1C1C1E1E1E1E27
:1031F0001E1E1E1E1F1F1F1F1F1F1F1F000000005F
:1032000000000000000000000000000000000000BE
:1032100000000000000000000000000000000000AE
:0D32200000000000000000000000000000A1
:03322D000000009E
:10323000000000000000000000000000000000008E
:10324000000000000000000000000000001020400E
:053250008001020408EA
:020000040030CA
:0100010002FC
:0100020003FA
:010003001EDE
:010005008179
:010006008178
:010008000FE8
:01000900C036
:01000A000FE6
:01000B00E014
:01000C000FE4
:01000D0040B2
:00000001FF
